:020000020000FC
:0200000031C00D
:040004000C944C020A
:040040000C944002DA
:04001C000C944402FA
:1000640060E008E00EBF0FE50DBF00E40BBF02E047
:1000740005BF929A00E010E00E94DF01932F00E098
:1000840011E00E94DF01A32F08E10AB906E800BDD0
:1000940007E609B98F9A01E605BD00E003BD00E05B
:1000A4000ABB0FE806B900E607B9D19AD29AD39AE7
:1000B400D49AD59AD69A00E00FBD00E109BF0DE3AA
:1000C4000BBD08E00ABD7894369A5F9945C059176C
:1000D400B8F45A1750F1062F007C0030D9F1062FDE
:1000E4000073003031F4062F0770073031F0639548
:1000F40031C000E0687C602B2DC00E9406022AC03B
:10010400062F007C003831F1062F0073003231F4E1
:10011400062F0770073031F063951CC000E2687C3D
:10012400602B18C00E94060215C0062F007C003404
:1001340089F0062F0073003131F4062F0770073061
:1001440031F0639507C000E1687C602B03C00E9416
:10015400060200C00C9467005F9B0C9438014CB1FC
:1001640030910000303021F40E9491010C94380148
:10017400309101003030E9F40E949B01309100007D
:100184003A3AC9F030910100353179F03031B9F1A2
:100194003231A9F1333199F1343189F10E943A01B4
:1001A40020E10E94F0010C9436010E943A010C9463
:1001B40036010C94070130910100323161F0333182
:1001C40021F1343161F03631A1F03031D1F40E94A3
:1001D40041010C9436010E944F010C9436010E9497
:1001E40002022BEB0E943D01232F0E943D010C943F
:1001F40036010E942B020C9436010C9407010C94D6
:1002040038010E94AD010C943801309100003A3A53
:1002140099F03535B1F7309101003231A9F033311D
:10022400D1F03431E1F0303161F70E944B0126E026
:100234000E94F0010C94360130910100333109F72A
:100244000E9481010C9436010E945B0128E00E9407
:10025400F0010C9436010E9464010C943601242FA1
:100264000E94F0010C9436010E94AD010C94AE0082
:1002740000E003BD08955D9BFECF2CB908952BEBE0
:100284000E943D0120E10E943D0123B50E943D01F1
:1002940008950E94B70133BD08952BEB0E943D01E0
:1002A40022E10E943D0105B50770202F0E943D0107
:1002B4000895483034F4403021F005B5087F042B0C
:1002C40005BD089540FD0C94740146950FE7400F59
:1002D400942F292F00E010E00E94D50124E00E9411
:1002E400F001089546950FE7041BA02F2A2F00E084
:1002F40011E00E94D50125E00E94F00108954130EB
:1003040039F02BEB0E943D01292F0E943D010895F5
:100314002BEB0E943D012A2F0E943D010895453593
:1003240029F04A3A19F04B3B09F008954093000034
:100334000895403169F0413159F0423149F0433177
:1003440039F0443129F0453119F0463109F0089566
:1003540040930100089520E02093000020930100C1
:1003640040E000E010E030E00895042F302F300F1B
:100374000695300F069506950695300F0695301BA9
:100384000695300F089503EA209F16940794169457
:100394000794169407941694079416940794169445
:1003A4000794302D0895E199FECF0FBB1EBB2DBBE2
:1003B400F894E29AE19A78940895E199FECF0FBBFC
:1003C4001EBBE09A3DB3089563FD07C0203428F4B2
:1003D400220F0BB30178022B0BBB0895203458F481
:1003E4006360220F0BB30178022B0BBB00E00DBD41
:1003F4000CBD0DE00EBD08951BB311781BBB089511
:100404003BB33E77369508950E942302062F00736E
:10041400000F000F6F73602B0E9411020895062FC6
:10042400007C003431F0003841F02FE30E94E601F3
:10043400089523E00E94E601089528E10E94E60160
:100444000895062F007C702B7193819370E080E0F7
:1004540008950E943A012BEB0E943D01F8940F2F5E
:100464001E2FF0E0E4E00F1729F021910E943D01D6
:100474000C9435021E17C9F77894089554B155B1F8
:10048400369A18950F930E94FE0100E00EBD6C7F12
:100494000F9118950F9301E0800F00E0701F0F91EA
:0204A4001895A9
:00000001FF
