:020000020000FC
:0200000031C00D
:02004000FFC0FF
:1000640008E00EBF0FE50DBF08E10AB906E800BDC0
:1000740007E609B98F9A03E605BD00E003BD00E079
:100084000ABB0FE806B900E607B9D19AD29AD39A07
:10009400D49AD59AD69A78940000971754F498175E
:1000A40080F002E1000FABB3A170A02BABBB0C94AA
:1000B400690008E3000FABB3A170A02BABBB0C9499
:1000C400690007E0000FABB3A170A02BABBB5F9B33
:1000D4000C94B7003CB1403021F40E94FA000C9417
:1000E400B7005030E1F40E9404014A3A51F0503113
:1000F400E1F15231D1F15331C1F10E94B9000C94B4
:10010400B500523141F0533181F1503151F50E9423
:10011400C0000C94B5000E94CB000C94B500000004
:100124006030F9F4632F4A3A61F04535D1F4523125
:1001340071F0533191F05031A1F40E94C7000C9436
:10014400B500433171F40E94E9000C94B5006830A5
:1001540044F40E94D4000C94B5000E94D9000C947D
:10016400B7000E940E010E940E010C944E0000E0A4
:1001740003BD08955D9BFECF2CB908952BEB0E941F
:10018400BC0023B50E94BC0008950E94120113BD57
:1001940008952BEB0E94BC0005B50770202F0E9428
:1001A400BC00089505B5087F062B05BD0895000021
:1001B40060FD0C94E20066950FE7600F762F0895BA
:1001C4000C94E20066950FE7061B802F089500004B
:1001D400613039F02BEB0E94BC00272F0E94BC0039
:1001E40008952BEB0E94BC00282F0E94BC000895A8
:1001F400353531F03A3A21F03B3B11F040E00895B7
:10020400432F0895303131F0313121F0323111F082
:1002140050E00895532F089540E050E060E00895C1
:10022400062F102F100F0695100F069506950695AC
:10023400100F0695101B0695100F089594B195B1F3
:04024400369A189539
:00000001FF
