:020000020000FC
:0200000031C00D
:040004000C944E0208
:040040000C944102D9
:04001C000C944602F8
:1000640060E008E00EBF0FE50DBF00E40BBF02E047
:1000740005BF929A00E010E00E94DE01932F00E099
:1000840011E00E94DE01A32F08E10AB906E800BDD1
:1000940007E609B98F9A03E605BD00E003BD00E059
:1000A4000ABB0FE806B900E607B9D19AD29AD39AE7
:1000B400D49AD59AD69A00E00FBD00E109BF0DE3AA
:1000C4000BBD08E00ABD7894369AA6E994E6F0E000
:1000D400E4E05F994CC016F00C94A9000E94AB00B8
:1000E400D030A9F5303AA8F4343610F1363978F521
:1000F4003E3668F1062F007C003049F10E9424024C
:10010400062F0F730060602F2FE30E94E5010C940B
:10011400A900062F007C0034D1F00E942402062F8F
:100124000F730064602F23E00E94E5010C94A90082
:10013400062F007C003859F00E942402062F0F730A
:100144000068602F28E10E94E5010C94A9000C943A
:100154006B00E894C50F00E0B01FDF3F19F0D395A2
:100164000C94B8003B2FD0E0B0E0C0E008955F9B52
:100174000C9445014CB130910000303021F40E94C0
:100184009A010C944501309101003030E9F40E9449
:10019400A701309100003A3AC9F03091010035319D
:1001A40079F03031B9F13231A9F1333199F1343187
:1001B40089F10E94470120E10E94F1010C9443015E
:1001C4000E9447010C9443010C94120130910100E8
:1001D400323161F03331F1F0343161F03631A1F074
:1001E4003031D1F40E9451010C9443010E945C010E
:1001F4000C9443010E9403022BEB0E944D01232F18
:100204000E944D010C9443010E942C020C94430162
:100214000C9412010C9445010E94BC010C944501FC
:10022400309100003A3A99F03535B1F73091010038
:100234003231A9F03331E1F03431F1F0303161F78A
:100244000E94580126E00E94F1010C944301309170
:100254000100333109F70E9487010C9443014830AF
:10026400DCF60E94650128E00E94F1010C94430130
:100274000E946A010C944301242F0E94F1010C9402
:1002840043010E94BC010C94B90000E003BD27E0C7
:100294000E94F10108955D9BFECF2CB908952F2F84
:1002A4000E944D012E2F0E944D0108950E94C60107
:1002B40033BD08952BEB0E944D0105B50770202F27
:1002C4000E944D01089505B5087F042B05BD0895CE
:1002D40040FD0C947A0146950FE7400F942F292F87
:1002E40000E010E00E94D40124E00E94F10108958E
:1002F40046950FE7041BA02F2A2F00E011E00E946F
:10030400D40125E00E94F1010895242F0E944D019B
:10031400413039F02BEB0E944D01292F0E944D01F1
:1003240008952BEB0E944D012A2F0E944D01089540
:10033400453541F04A3A31F04B3B21F020E020931F
:1003440000000895409300000895403181F0413148
:1003540071F0423161F0433151F0443141F04531A3
:1003640031F0463121F020E02093010008954093BC
:100374000100089520E0209300002093010040E054
:1003840000E010E030E00895042F302F300F069580
:10039400300F069506950695300F0695301B069589
:1003A400300F0895E199FECF0FBB1EBB2DBBF8940F
:1003B400E29AE19A78940895E199FECF0FBB1EBBAF
:1003C400E09A3DB3089563FD09C0203438F40E94D7
:1003D400FF01220F1BB31178122B1BBB089563601E
:1003E400203450F4220F1BB31178122B1BBB00E0F6
:1003F4000DBD0CBD0DE00EBD08951BB311781BBBE4
:1004040008953BB33E77369508950E942402062F43
:100414000073000F000F6F73602B0E941202089587
:10042400062F007C003431F0003841F02FE30E94A5
:10043400E501089523E00E94E501089528E10E9462
:10044400E5010895062F007C702B7193819370E071
:1004540080E008950E9447012BEB0E944D01F8941F
:100464000F2F1E2FF0E0E4E0F01728F421910E94F2
:100474004D010C943602E117C8F37894089554B1F1
:1004840055B1369A689418950F930E94FF0100E0C5
:100494000EBD6C7F0F9118950F9301E0800F00E063
:0604A400701F0F91189576
:00000001FF
