:020000020000FC
:0200000031C00D
:040004000C944B020B
:040040000C943E02DC
:04001C000C944302FB
:1000640060E008E00EBF0FE50DBF00E40BBF02E047
:1000740005BF929A00E010E00E94DB01932F00E09C
:1000840011E00E94DB01A32F08E10AB906E800BDD4
:1000940007E609B98F9A03E605BD00E003BD00E059
:1000A4000ABB0FE806B900E607B9D19AD29AD39AE7
:1000B400D49AD59AD69A00E00FBD00E109BF0DE3AA
:1000C4000BBD08E00ABD7894369AA6E994E6F0E000
:1000D400E4E05F994CC016F00C94A9000E94AB00B8
:1000E400D030A9F5303AA8F4343610F13E3678F120
:1000F400363968F5062F007C003049F10E94210250
:10010400062F0F730060602F2FE30E94E2010C940E
:10011400A900062F007C0034D1F00E942102062F92
:100124000F730064602F23E00E94E2010C94A90085
:10013400062F007C003859F00E942102062F0F730D
:100144000068602F28E10E94E2010C94A9000C943D
:100154006B00E894C50F00E0B01FDF3F19F0D395A2
:100164000C94B8003B2FD0E0B0E0C0E008955F9B52
:100174000C9445014CB130910000303021F40E94C0
:1001840097010C944501309101003030E9F40E944C
:10019400A401309100003A3AC9F0309101003531A0
:1001A40079F03031B9F13231A9F1333199F1343187
:1001B40089F10E94470120E10E94EE010C94430161
:1001C4000E9447010C9443010C94120130910100E8
:1001D400323161F03331F1F0343161F03631A1F074
:1001E4003031D1F40E944E010C9443010E94590114
:1001F4000C9443010E9400022BEB0E944A01232F1E
:100204000E944A010C9443010E9429020C94430168
:100214000C9412010C9445010E94B9010C944501FF
:10022400309100003A3A99F03535B1F73091010038
:100234003231A9F03331E1F03431F1F0303161F78A
:100244000E94550126E00E94EE010C944301309176
:100254000100333109F70E9484010C9443014830B2
:10026400DCF60E94620128E00E94EE010C94430136
:100274000E9467010C944301242F0E94EE010C9408
:1002840043010E94B9010C94B90000E003BD089534
:100294005D9BFECF2CB908952F2F0E944A012E2F6B
:1002A4000E944A0108950E94C30133BD08952BEBB7
:1002B4000E944A0105B50770202F0E944A01089543
:1002C40005B5087F042B05BD089540FD0C94770106
:1002D40046950FE7400F942F292F00E010E00E946D
:1002E400D10124E00E94EE01089546950FE7041B16
:1002F400A02F2A2F00E011E00E94D10125E00E94E6
:10030400EE010895242F0E944A01413039F02BEB6D
:100314000E944A01292F0E944A0108952BEB0E9452
:100324004A012A2F0E944A010895453541F04A3A6C
:1003340031F04B3B21F020E02093000008954093DE
:1003440000000895403181F0413171F0423161F093
:10035400433151F0443141F0453131F0463121F01F
:1003640020E020930100089540930100089520E0C7
:10037400209300002093010040E000E010E030E012
:100384000895042F302F300F0695300F06950695EB
:100394000695300F0695301B0695300F0895E199A8
:1003A400FECF0FBB1EBB2DBBF894E29AE19A789462
:1003B4000895E199FECF0FBB1EBBE09A3DB30895AB
:1003C40063FD09C0203438F40E94FC01220F1BB3E2
:1003D4001178122B1BBB08956360203450F4220F54
:1003E4001BB31178122B1BBB00E00DBD0CBD0DE03F
:1003F4000EBD08951BB311781BBB08953BB33E7724
:10040400369508950E942102062F0073000F000FF5
:100414006F73602B0E940F020895062F007C003436
:1004240031F0003841F02FE30E94E201089523E007
:100434000E94E201089528E10E94E2010895062F36
:10044400007C702B7193819370E080E008950E948A
:1004540047012BEB0E944A01F8940F2F1E2FF0E066
:10046400E4E0F01728F421910E944A010C9433022D
:10047400E117C8F37894089554B155B1369A689445
:1004840018950F930E94FC0100E00EBD6C7F0F9144
:1004940018950F9301E0800F00E0701F0F911895DD
:00000001FF
