:020000020000FC
:0200000031C00D
:04001C000C947D00C3
:1000640008E00EBF0FE50DBF08E10AB906E800BDC0
:1000740007E609B9D19AD29AD39AD49AD59AD69A3C
:1000840000E00FBD00E109BF0DE30BBD08E00ABDB0
:1000940078945F9B0C945B003CB13034C32F20F404
:1000A4000E945D000C945B00CF53C03410F40E9496
:1000B40069000C944B00B13049F0CF3338F40E94FE
:1000C4007700CC0FABB3A178AC2BABBB0895B1E0F8
:1000D400C03450F4CC0FABB3A178AC2BABBB00E075
:1000E4000DBD0CBD0DE00EBD089500E0ABB3A178CD
:1000F400A02BABBB08950E94770000E00EBDB0E0DA
:0201040018954C
:00000001FF
