:020000020000FC
:0200000031C00D
:0200340055C0B5
:020040007CC082
:1000640008E00EBF0FE50DBF08E90AB906E800BDB8
:1000740007E609B98F9A03E605BD00E003BD00E079
:100084000ABB0FE806B900E607B9789460E071E0AE
:100094000C944A002F93212F120F2695120F2695A8
:1000A400269526958894120F08F41FEF2F91089532
:1000B4005D9BFECF2CB9089543BD089528E40E94AA
:1000C4005A002DE30E945A00272F0E945A0020E371
:1000D4000E945A0025E20E945A0008951CB1173765
:1000E40019F4369A61E01895113719F4369860E0DE
:1000F4001895613039F0153529F440E00E945E000E
:1001040061E01895183829F440E00E945E0060E030
:100114001895103111F472E00DC0723059F4613049
:1001240049F4153638F4B6DF412F43BD212F0E9420
:100134005A0071E0189524B125B10E945A00369AEC
:100144001895C53531F0CA3A21F0CB3B11F0E0E007
:100154000895E1E00895C03121F0C13111F0E0E0EB
:06016400089531E008954A
:00000001FF
