:020000020000FC
:0200000031C00D
:040004000C943A021C
:040040000C942E02EC
:04001C000C9432020C
:1000640060E008E00EBF0FE50DBF00E40BBF02E047
:1000740005BF929A00E010E00E94CB01932F00E0AC
:1000840011E00E94CB01A32F08E10AB906E800BDE4
:1000940007E609B98F9A03E605BD00E003BD00E059
:1000A4000ABB0FE806B900E607B9D19AD29AD39AE7
:1000B400D49AD59AD69A00E00FBD00E109BF0DE3AA
:1000C4000BBD08E00ABD7894369A5F9945C059176C
:1000D400B8F45A1750F1062F007C0030D9F1062FDE
:1000E4000073003031F4062F0770073031F0639548
:1000F40031C000E0687C602B2DC00E94F4012AC04E
:10010400062F007C023031F1062F0073003831F4E1
:10011400062F0770073031F063951CC000E2687C3D
:10012400602B18C00E94F40115C0062F007C01301A
:1001340089F0062F0073003431F4062F077007305E
:1001440031F0639507C000E1687C602B03C00E9416
:10015400F40100C00C9467005F9B0C9438014CB10F
:1001640030910000303021F40E9487010C94380152
:10017400309101003030F9F50E9494013091000073
:100184003A3AA9F030910100353169F03031A9F1E2
:10019400323199F1333189F10E943A0127E00E940A
:1001A400DE010C9436010E943A010C943601309120
:1001B4000100323161F0333131F1343161F03631E3
:1001C400A1F03031E1F40E9441010C9436010E9407
:1001D4004C010C9436010E94F0012BEB0E943D016E
:1001E400232F0E943D010C9436010E9419020C94A5
:1001F40036010C9405010C9405010C9438010E94FD
:10020400A9010C943801309100003A3A99F035353F
:10021400B1F7309101003231A9F03331E1F03431DA
:10022400F1F0303161F70E94480126E00E94DE01BE
:100234000C94360130910100333109F70E947701A3
:100244000C9436014830DCF60E94550128E00E94E7
:10025400DE010C9436010E945A010C943601242FBD
:100264000E94DE010C9436010E94A9010C94AE0098
:1002740000E003BD08955D9BFECF2CB908952BEBE0
:100284000E943D0123B50E943D0108950E94B301DF
:1002940033BD08952BEB0E943D0105B50770202F57
:1002A4000E943D01089505B5087F042B05BD0895FE
:1002B40040FD0C946A0146950FE7400F942F292FB7
:1002C40000E010E00E94C10134E00E94DE010895C4
:1002D40046950FE7041BA02F2A2F00E011E00E948F
:1002E400C10135E00E94DE010895413039F02BEB65
:1002F4000E943D01292F0E943D0108952BEB0E948D
:100304003D012A2F0E943D010895453541F04A3AA6
:1003140031F04B3B21F020E02093000008954093FE
:1003240000000895403181F0413171F0423161F0B3
:10033400433151F0443141F0453131F0463121F03F
:1003440020E020930100089540930100089520E0E7
:10035400209300002093010040E000E010E030E032
:100364000895042F302F300F0695300F069506950B
:100374000695300F0695301B0695300F0895E199C8
:10038400FECF0FBB1EBB2DBBF894E29AE19A789482
:100394000895E199FECF0FBB1EBBE09A3DB30895CB
:1003A40063FD09C0203438F40E94EC01220F1BB312
:1003B4001178122B1BBB08956360203450F4220F74
:1003C4001BB31178122B1BBB00E00DBD0CBD0DE05F
:1003D4000EBD08951BB311781BBB08953BB33E7744
:1003E400369508950E941102062F0073000F000F26
:1003F4006F73602B0E94FF010895062F007C003468
:1004040031F0003841F02FE30E94D201089523E037
:100414000E94D201089528E10E94D2010895062F76
:10042400007C702B7193819370E080E008950E94AA
:100434003A012BEB0E943D01F8940F2F1E2FF0E0A0
:10044400E4E00F1729F021910E943D010C9423024E
:100454001E17C9F77894089554B155B1369A189572
:100464000F930E94EC0100E00EBD6C7F0F91189574
:0E0474000F9301E0800F00E0701F0F911895AC
:00000001FF
