:020000020000FC
:0200000031C00D
:04001C000C94A000A0
:1000640008E00EBF0FE50DBF08E10AB906E800BDC0
:1000740007E609B9D19AD29AD39AD49AD59AD69A3C
:1000840000E00FBD00E109BF0DE30BBD08E00ABDB0
:10009400789401E0A0E00E947B00CD2F0E948200B2
:1000A4005F9B0C9469003CB14130A1F4C32FC03470
:1000B40048F40E948200DC2F01E0A0E00E9471005D
:1000C4000C946900CF53C03410F40E948E0040E0B9
:1000D4000C946F00353809F441E00C945200E19916
:1000E400FECF0FBBAEBBDDBBF894E29AE19A7894E5
:1000F4000895E199FECF0FBBAEBBE09ADDB308953E
:10010400B13049F0C03438F40E949C00CC0FABB33A
:10011400A178AC2BABBB0895B1E0C03450F4CC0F44
:10012400ABB3A178AC2BABBB00E00DBD0CBD0DE0B7
:100134000EBD0895ABB3A178ABBB08950E949C009B
:0801440000E00EBDB0E01895CB
:00000001FF
