:020000020000FC
:0200000031C00D
:1000640008E00EBF0FE50DBF08E10AB906E800BDC0
:1000740007E609B9D19AD29AD39AD49AD59AD69A3C
:1000840001E0A0E00E946400CD2FCC0FCBBB5F9BAE
:100094000C945800CCB1C03448F4DC2F01E0A0E04B
:1000A4000E945A000E946B000C9458000C94490062
:1000B400E199FECF0FBBAEBBDDBBF894E29AE19AA7
:1000C40078940895E199FECF0FBBAEBBE09ADDB3FF
:1000D4000895B13049F0C03438F40E947700CC0F51
:1000E400ABB3A178AC2BABBB0895ABB3A178ABBBDE
:0200F40008956D
:00000001FF
