:020000020000FC
:0200000031C00D
:040004000C943C021A
:040040000C943002EA
:04001C000C9434020A
:1000640060E008E00EBF0FE50DBF00E40BBF02E047
:1000740005BF929A00E010E00E94CD01932F00E0AA
:1000840011E00E94CD01A32F08E10AB906E800BDE2
:1000940007E609B98F9A03E605BD00E003BD00E059
:1000A4000ABB0FE806B900E607B9D19AD29AD39AE7
:1000B400D49AD59AD69A00E00FBD00E109BF0DE3AA
:1000C4000BBD08E00ABD7894369A5F9945C059176C
:1000D400B8F45A1750F1062F007C0030D9F1062FDE
:1000E4000073003031F4062F0770073031F0639548
:1000F40031C000E0687C602B2DC00E94F6012AC04C
:10010400062F007C003831F1062F0073003231F4E1
:10011400062F0770073031F063951CC000E2687C3D
:10012400602B18C00E94F60115C0062F007C003415
:1001340089F0062F0073003131F4062F0770073061
:1001440031F0639507C000E1687C602B03C00E9416
:10015400F60100C00C9467005F9B0C943A014CB10B
:1001640030910000303021F40E9489010C943A014E
:10017400309101003030E9F40E9496013091000082
:100184003A3AC9F030910100353179F03031B9F1A2
:100194003231A9F1333199F1343189F10E943C01B2
:1001A40020E10E94E0010C9438010E943C010C946F
:1001B40038010C94070130910100323161F0333180
:1001C40021F1343161F03631A1F03031D1F40E94A3
:1001D40043010C9438010E944E010C9438010E9492
:1001E400F2012BEB0E943F01232F0E943F010C944C
:1001F40038010E941B020C9438010C9407010C94E2
:100204003A010E94AB010C943A01309100003A3A51
:1002140099F03535B1F7309101003231A9F033311D
:10022400E1F03431F1F0303161F70E944A0126E007
:100234000E94E0010C94380130910100333109F738
:100244000E9479010C9438014830DCF60E94570171
:1002540028E00E94E0010C9438010E945C010C9497
:100264003801242F0E94E0010C9438010E94AB0154
:100274000C94AE0000E003BD08955D9BFECF2CB945
:1002840008952BEB0E943F0123B50E943F0108957E
:100294000E94B50133BD08952BEB0E943F0105B5C3
:1002A4000770202F0E943F01089505B5087F042B95
:1002B40005BD089540FD0C946C0146950FE7400F71
:1002C400942F292F00E010E00E94C30124E00E9433
:1002D400E001089546950FE7041BA02F2A2F00E0A4
:1002E40011E00E94C30125E00E94E001089541301D
:1002F40039F02BEB0E943F01292F0E943F01089502
:100304002BEB0E943F012A2F0E943F01089545359F
:1003140041F04A3A31F04B3B21F020E020930000B9
:100324000895409300000895403181F0413171F007
:10033400423161F0433151F0443141F0453131F003
:10034400463121F020E020930100089540930100FC
:10035400089520E0209300002093010040E000E095
:1003640010E030E00895042F302F300F0695300F41
:10037400069506950695300F0695301B0695300FA9
:100384000895E199FECF0FBB1EBB2DBBF894E29AF2
:10039400E19A78940895E199FECF0FBB1EBBE09AD1
:1003A4003DB3089563FD09C0203438F40E94EE0182
:1003B400220F1BB31178122B1BBB089563602034EA
:1003C40050F4220F1BB31178122B1BBB00E00DBDA0
:1003D4000CBD0DE00EBD08951BB311781BBB089531
:1003E4003BB33E77369508950E941302062F00739F
:1003F400000F000F6F73602B0E9401020895062FF7
:10040400007C003431F0003841F02FE30E94D40125
:10041400089523E00E94D401089528E10E94D401A4
:100424000895062F007C702B7193819370E080E017
:1004340008950E943C012BEB0E943F01F8940F2F7A
:100444001E2FF0E0E4E00F1729F021910E943F01F4
:100454000C9425021E17C9F77894089554B155B128
:10046400369A18950F930E94EE0100E00EBD6C7F42
:100474000F9118950F9301E0800F00E0701F0F910A
:020484001895C9
:00000001FF
