:020000020000FC
:0200000020C01E
:10004000C3C008E00EBF0FE50DBF08E10AB906E81E
:1000500000BD07E609B98F9A03E605BD00E003BDC0
:100060005F9B0C947D003CB1403021F40E94BE00A7
:100070000C947D005030E1F40E94C8004A3A51F0DF
:100080005031D9F15231C9F15331B9F10E947F0099
:100090000C947B00523141F0533179F1503149F5E4
:1000A0000E9486000C947B000E9491000C947B00BF
:1000B0006030F9F4632F4A3A61F04535D1F452319A
:1000C00071F0533191F05031A1F40E948D000C94E5
:1000D0007B00433171F40E94AE000C947B006830C9
:1000E00044F40E949A000C947B000E949F000C94A0
:1000F0007D000E94D2000E94D2000C94300000E0EB
:1001000003BD08955D9BFECF2CB908952BEB0E9493
:10011000820023B50E94820008950E94D60013BD7C
:1001200008952BEB0E94820005B50770202F0E94D6
:100130008200089505B5087F062B05BD089560FD72
:100140000C94A70066950FE7600F762F08950C9426
:10015000A70066950FE7061B802F0895613039F0E0
:100160002BEB0E948200272F0E94820008952BEB28
:100170000E948200282F0E9482000895353531F0B8
:100180003A3A21F03B3B11F040E00895432F0895A7
:10019000303131F0313121F0323111F050E0089539
:1001A000532F089540E050E060E00895062F102F8F
:1001B000100F0695100F069506950695100F0695DB
:1001C000101B0695100F089594B195B1369A1895A5
:00000001FF
