:020000020000FC
:0200000031C00D
:04001C000C94C80078
:020034005EC0AC
:020040008FC06F
:1000640008E00EBF0FE50DBF08E90AB906E800BDB8
:1000740007E609B98F9A03E605BD00E003BD00E079
:100084000ABB0FE806B900E607B900E00FBD00E1BE
:1000940009BF0FEF0BBD0FEF0ABD789460E071E06C
:1000A400B0E00C9453002F93212F120F2695120FBA
:1000B4002695269526958894120F08F41FEF2F9104
:1000C40008955D9BFECF2CB9089543BD089528E49F
:1000D4000E9463002DE30E946300272F0E946300A7
:1000E40020E30E94630025E20E94630008951CB18E
:1000F400173741F490E000E00DBD0CBD0DE00EBDDE
:1001040061E01895113719F4369860E0189561305C
:1001140039F0153529F440E00E94670061E0189534
:10012400183829F440E00E94670060E01895103107
:1001340011F472E012C0723081F4613071F415363A
:1001440060F4B1DF412F43BD00E00DBD0CBD0DE0F7
:100154000EBD212F0E94630071E0189524B125B1D2
:100164000E946300369A1895C53531F0CA3A21F0D9
:10017400CB3B11F0E0E00895E1E00895C03121F0B7
:10018400C13111F0E0E0089531E00895B395B13044
:1001940019F4379A369A1895B53038F0379800E044
:0C01A40003BD00E00EBDB0E018951895FA
:00000001FF
