:020000020000FC
:0200000031C00D
:0200400003C1FA
:1000640008E00EBF0FE50DBF08E10AB906E800BDC0
:1000740007E609B98F9A03E605BD00E003BD00E079
:100084000ABB0FE806B900E607B9D19AD29AD39A07
:10009400D49AD59AD69A78940000971754F498175E
:1000A40080F002E1000FABB3A170A02BABBB0C94AA
:1000B400690008E3000FABB3A170A02BABBB0C9499
:1000C400690007E0000FABB3A170A02BABBB00002D
:1000D4005F9B0C94B9003CB10000403021F40E94B5
:1000E400FC000C94B9005030E1F40E9406014A3A35
:1000F40051F05031E1F15231D1F15331C1F10E944B
:10010400BB000C94B700523141F0533181F15031AE
:1001140051F50E94C2000C94B7000E94CD000C94CB
:10012400B70000006030F9F4632F4A3A61F04535B6
:10013400D1F4523171F0533191F05031A1F40E9455
:10014400C9000C94B700433171F40E94EB000C9485
:10015400B700683044F40E94D6000C94B7000E94A3
:10016400DB000C94B9000E9412010E9412010C944D
:100174004F0000E003BD08955D9BFECF2CB90895A8
:100184002BEB0E94BE0023B50E94BE0008950E947E
:10019400160113BD08952BEB0E94BE0005B5077030
:1001A400202F0E94BE00089505B5087F062B05BDCB
:1001B4000895000060FD0C94E40066950FE7600F5D
:1001C400762F08950C94E40066950FE7061B802FA4
:1001D40008950000613039F02BEB0E94BE00272FF8
:1001E4000E94BE0008952BEB0E94BE00282F0E949F
:1001F400BE000895353531F03A3A21F03B3B11F019
:1002040040E00895432F0895303141F0313131F009
:10021400323121F0333111F050E00895532F089515
:1002240040E050E060E00895062F102F100F06956F
:10023400100F069506950695100F0695101B06954A
:0C024400100F089594B195B1369A1895EA
:00000001FF
