:020000020000FC
:0200000031C00D
:080004000C94C3020C94B60237
:040040000C94A80272
:04001C000C94AD0291
:1000640060E008E00EBF0FE50DBF00EC0BBF0AE037
:1000740005BF929A939A00E010E00E944B02932FDE
:1000840000E011E00E944B02A32F08E10AB906E840
:1000940000BD07E609B98F9A01E605BD00E003BD7E
:1000A40000E00ABB0FE806B900E607B9D19AD29A74
:1000B400D39AD49AD59AD69A00E00FBD00E109BF2D
:1000C4000DE30BBD08E00ABD7894369A23E20E9442
:1000D400390233BD22E10E94520200000C946F00E9
:1000E400A6E994E6F2E0E0E02FE30E9452025F9971
:1000F400A4C016F00C94B7000E94B900D030A9F542
:10010400303AA8F4343610F1363978F53E3668F1D1
:10011400062F007C003049F10E948B02062F0F73DA
:100124000060602F2FE30E9452020C94B700062F48
:10013400007C0034D1F00E948B02062F0F73006400
:10014400602F23E00E9452020C94B700062F007C1B
:10015400003859F00E948B02062F0F730068602F3D
:1001640028E10E9452020C94B7000C947900E894A0
:10017400C50F00E0B01FDF3F19F0D3950C94C60003
:100184003B2FD0E0B0E0C0E0089500E003BD29E0DB
:100194000E9452020E948B02F0930300E093040039
:1001A400E0E0F2E05F9949C00191009306000191FB
:1001B40000930500202F207C0E940D010E94FB006B
:1001C4007117F0F38017E0F3203089F408B301606D
:1001D40008BB2CE40E94C101FEF70E94B900D03094
:1001E400D9F73917C8F33A17B8F70C94D4000C941C
:1001F400D400203041F40F9308B30E7F08BB0CE405
:1002040003BD0F9108950F9308B3016008BB0CEC74
:1002140003BD0F910895203079F4009105001091E9
:100224000600069517950695179506951795069554
:100234001795810F10E0711F08955F9B0C94AB011B
:100244004CB130910000303021F40E9413020C9420
:10025400AB01309101003030E9F40E941D0230916D
:1002640000003A3AC9F030910100353179F030316B
:10027400B9F13231A9F1333199F1343189F10E9464
:10028400AD0120E10E945C020C94A9010E94AD0121
:100294000C94A9010C94780130910100323161F081
:1002A4003331F1F0343161F03631A1F03031D1F431
:1002B4000E94B7010C94A9010E94CB010C94A901DE
:1002C4000E946A022BEB0E94B301232F0E94B30108
:1002D4000C94A9010E9493020C94A9010C94780136
:1002E4000C94AB010E942F020C94AB0130910000DE
:1002F4003A3A99F03535B1F7309101003231A9F02D
:100304003331E1F03431F1F0303161F70E94C10151
:1003140026E00E945C020C94A90130910100333163
:1003240009F70E94FD010C94A9014830DCF60E94F3
:10033400D70128E00E945C020C94A9010E94E0010C
:100344000C94A901242F0E945C020C94A9010E9420
:100354002F020C941F0100E003BD27E00E945C0201
:1003640008955D9BFECF2CB908952BEB0E94B30139
:1003740020E10E94B30123B50E94B30108954436DD
:1003840029F0242F0E94390233BD08950FEF03BDD5
:10039400089505B507702BEB0E94B30122E10E947A
:1003A400B301202F0E94B3010895483030F4403047
:1003B40021F005B5087F042B05BD089540FD0C947C
:1003C400F00146950FE7400F942F292F00E010E02D
:1003D4000E94410224E00E945C02089546950FE7C2
:1003E400041BA02F2A2F00E011E00E94410225E007
:1003F4000E945C020895413051F02BEB0E94B3013E
:1004040023E10E94B301292F0E94B30108952BEB2D
:100414000E94B30123E10E94B3012A2F0E94B30179
:100424000895453529F04A3A19F04B3B09F00895EF
:10043400409300000895403169F0413159F0423150
:1004440049F0433139F0443129F0453119F046314E
:1004540009F0089540930100089520E020930000DE
:100464002093010040E000E010E030E0089503EA4A
:10047400209F000C111C000C111C312D0895E199D2
:10048400FECF0FBB1EBB2DBBF894E29AE19A789481
:100494000895E199FECF0FBB1EBBE09A3DB30895CA
:1004A40063FD07C0203428F4220F0BB30178022B1C
:1004B4000BBB0895203458F46360220F1BB31178EA
:1004C400122B1BBB00E00DBD0CBD0DE00EBD08954D
:1004D4003BB33E77369508950E948B02062F007336
:1004E400000F000F6F73602B0E9479020895062F8E
:1004F400007C003431F0003841F02FE30E945202B6
:10050400089523E00E945202089528E10E945202B5
:100514000895062F007C702B7193819370E080E026
:1005240008950E94AD012BEB0E94B301F8940F2FA4
:100534001E2FF2E0E0E0F01728F421910E94B301AD
:100544000C949D02E117C8F37894089554B155B101
:10055400369A689418950F931BB311781BBB00E06F
:100564000EBD6C7F0F9118952DE20E945C0225E769
:100574000E94B3010F9301E0800F00E0701F0F9100
:100584001895009307000F910F91062F0770013003
:1005940041F0023071F0639502E70F9300E00F938E
:1005A4001895E23070F0639507EC0F9300E00F9319
:1005B4001895E23030F0E0E0F2E002ED0F9300E055
:0405C4000F931895E4
:00000001FF
