:020000020000FC
:0200000031C00D
:0200340048C0C2
:0200400092C06C
:1000640008E00EBF0FE50DBF08E90AB906E800BDB8
:1000740007E609B98F9A03E605BD00E003BD00E079
:100084000ABB0FE806B900E407B9789460E00E945F
:100094004D000C944B005D9BFECF2CB9089543BDDD
:1000A400089528E40E944D002DE30E944D00272F5F
:1000B4000E944D0020E30E944D0025E20E944D0065
:1000C40008951CB1613059F0173749F4369A2BE77B
:1000D4000E944D0043E30E94510061E018951137DE
:1000E40049F42DE70E944D0040E00E9451003698EB
:1000F40060E01895153639F440E00E94510070E331
:100104000E9453001895123739F443E30E945100BA
:1001140072E30E9453001895143739F446E60E949E
:10012400510074E30E9453001895193739F449E9D2
:100134000E94510076E30E9453001895153739F454
:100144004CEC0E94510078E30E9453001895193634
:1001540039F44FEF0E9451007DE40E94530018953A
:10016400189534B125B10E944D00232F0E944D00F3
:0A0174002CE20E944D00369A189507
:00000001FF
