:020000020000FC
:0200000031C00D
:0200340039C0D1
:0200400063C09B
:1000640008E00EBF0FE50DBF08E90AB906E800BDB8
:1000740007E609B98F9A03E605BD00E003BD00E079
:100084000ABB0FE8A6B900E407B9369A78942BE7BF
:100094000E944E000C944C005D9BFECF2CB9089539
:1000A40043BD08951CB1113621F440E00E94520072
:1000B4001895133721F443E30E945200189514361F
:1000C40021F446E60E9452001895163621F449E9B7
:1000D4000E9452001895173621F44CEC0E945200ED
:1000E4001895183621F44FEF0E94520018951137D5
:1000F40041F42DE70E944E0040E00E9452003798E0
:100104001895189524B10E944E0025B10E944E0006
:0A0114002CE20E944E00369A189566
:00000001FF
