:020000020000FC
:0200000031C00D
:0200340038C0D2
:020040006FC08F
:1000640008E00EBF0FE50DBF08E90AB906E800BDB8
:1000740007E609B98F9A03E605BD00E003BD00E079
:100084000ABB0FE8A6B900E407B978940E944D00B2
:1000940060E00C944B005D9BFECF2CB9089543BDEA
:1000A40008951CB1613051F0173741F42BE743E355
:1000B4000E94510061E0379A369A1895113749F435
:1000C4002DE70E944D0040E00E945100379860E007
:1000D4001895113621F440E00E9451001895133709
:1000E40021F443E30E9451001895143621F446E6A6
:1000F4000E9451001895163621F449E90E945100D6
:100104001895173621F44CEC0E94510018951836B6
:1001140021F44FEF0E945100189518952EE60E9485
:100124004D0034B125B10E944D00232F0E944D0093
:0A0134002CE20E944D00369A189547
:00000001FF
