:020000020000FC
:0200000031C00D
:040040000C947601A5
:04001C000C947A01C5
:1000640008E00EBF0FE50DBF00E0A0E00E944D01C7
:10007400712F00E0A1E00E944D01812F08E10AB92F
:1000840006E800BD07E609B98F9A03E605BD00E05E
:1000940003BD00E00ABB0FE806B900E607B9D19A30
:1000A400D29AD39AD49AD59AD69A00E00FBD00E199
:1000B40009BF0DE30BBD08E00ABD7894369A971783
:1000C40038F4981750F00FE30E9454010C94720016
:1000D40008E10E9454010C94720003E00E94540150
:1000E4005F9B0C94CC003CB1403021F40E941B0176
:1000F4000C94CC00503019F50E9425014A3A69F05D
:100104005031D9F05231C9F05331B9F00E94CE00C8
:1001140007E00E9460010C94CA00523141F053314F
:10012400C9F1503199F50E94D5000C94CA000E947F
:10013400E0000C94CA000C94A1000C94CC00603034
:1001440029F5632F4A3A79F0453501F5523189F0A2
:100154005331C1F05031D1F40E94DC0006E00E941A
:1001640060010C94CA00533189F40E940B010C9471
:10017400CA0068305CF40E94E90008E00E94600153
:100184000C94CA000E94EE000C94CC000E94310131
:100194000E9431010C94610000E003BD08955D9B51
:1001A400FECF2CB908952BEB0E94D10023B50E94F9
:1001B400D10008950E94350113BD08952BEB0E94D0
:1001C400D10005B50770202F0E94D100089505B510
:1001D400087F062B05BD089560FD0C94FE0066950E
:1001E4000FE7600F762FC72F00E0A0E00E944301C5
:1001F40004E00E946001089566950FE7061B802FB6
:10020400C82F00E0A1E00E94430105E00E946001C4
:100214000895613039F02BEB0E94D100272F0E9402
:10022400D10008952BEB0E94D100282F0E94D10009
:100234000895353531F03A3A21F03B3B11F040E076
:100244000895432F0895303141F0313131F0323186
:1002540021F0333111F050E00895532F089540E018
:1002640050E060E00895062F102F100F0695100F30
:10027400069506950695100F0695101B0695100F0A
:100284000895E199FECF0FBBAEBBCDBBF894E29AC3
:10029400E19A78940895E199FECF0FBBAEBBE09A42
:1002A4001DB30895B13049F0003438F40E946E0152
:1002B400000FABB3A178A02BABBB0895B1E0003421
:1002C40050F4000FABB3A178A02BABBB00E00DBD85
:1002D4000CBD0DE00EBD0895ABB3A178ABBB089582
:1002E4001BB31E771695089594B195B1369A189557
:0C02F4000E946E0100E00EBDB0E0189505
:00000001FF
