:020000020000FC
:0200000031C00D
:04001C000C947A00C6
:1000640008E00EBF0FE50DBF08E10AB906E800BDC0
:1000740007E609B9D19AD29AD39AD49AD59AD69A3C
:1000840000E00FBD00E109BF0DE30BBD08E00ABDB0
:1000940078945F9B0C945E003CB1303418F4032FC9
:1000A4000E9460003F53032F0E9468000C945E007E
:1000B4000E9476000E9476000C944B00B13029F027
:1000C400000FABB3A178A02BABBB0895B1E0003413
:1000D40078F7000FABB3A178A02BABBB00E00DBD4C
:1000E4000CBD0DE00EBD089540E050E060E00895C1
:1000F40000E0ABB3A178A02BABBB00E00EBDB0E039
:0201040018954C
:00000001FF
