:020000020000FC
:0200000031C00D
:04001C000C947A00C6
:1000640008E00EBF0FE50DBF08E10AB906E800BDC0
:1000740007E609B9D19AD29AD39AD49AD59AD69A3C
:1000840000E00FBD00E109BF0DE30BBD08E00ABDB0
:1000940078945F9B0C945A00CCB1C03420F40E9435
:1000A4005C000C945A00CF53C03410F40E946800D2
:1000B4000C944B00B13049F0C03438F40E947600FF
:1000C400CC0FABB3A178AC2BABBB0895B1E0C0347B
:1000D40050F4CC0FABB3A178AC2BABBB00E00DBD9F
:1000E4000CBD0DE00EBD0895ABB3A178ABBB089574
:0C00F4000E94760000E00EBDB0E0189500
:00000001FF
